:100000000C94A1000C94BE000C94BE000C94BE0095
:100010000C9409010C94BE000C94BE000C94BE001C
:100020000C94BE000C94BE000C94BE000C94BE0058
:100030000C94BE000C94BE000C94490C0C94BE00B1
:100040000C94BE000C94BE000C94540B0C94120B38
:100050000C94BE000C94BE000C94BE000C94BE0028
:100060000C94BE000C94BE00202000524556455210
:100070005349002B2D2D2B2D2D2B2D2D2B2D2D2BA5
:100080002D2D2B2D2D2B2D2D2B2D2D2B007C2020A0
:100090007C20207C20207C20207C20207C20207C38
:1000A00020207C20207C002B2D2D2B2D2D2B2D2D49
:1000B0002B2D2D2B2D2D2B2D2D2B2D2D2B2D2D2B7C
:1000C000005072657373206120627574746F6E20C6
:1000D000746F20737461727420616761696E004788
:1000E000414D45204F564552004353534532303120
:1000F000302F373230312070726F6A65637420623E
:1001000079203C446F6E6768616F2059616E67208B
:1001100034353933303033323E0052657665727390
:1001200069001B5B3F32356C001B5B25646D001B57
:100130005B324A001B5B306D001B5B25643B256412
:10014000480011241FBECFEFD8E0DEBFCDBF11E0C5
:10015000A0E0B1E0E0EAF0E202C005900D92AE331B
:10016000B107D9F724E0AEE3B1E001C01D92A93B8D
:10017000B207E1F70E949E090C944E100C94000007
:10018000E8E6F0E08081826080838BB382608BBB85
:10019000ECE6F0E080818760808310924A0180E085
:1001A0000DC0E82FF0E0EE0FFF1FEE0FFF1FE25C27
:1001B000FE4F10821182128213828F5F833088F388
:1001C000089580914A01181614F580914B016FB77C
:1001D000F89491E009C0F901E55BFE4F4081F90117
:1001E000E65BFE4F40839F5F292F30E040914A013C
:1001F000042E000C550B241735076CF390914A011F
:10020000915090934A0166231CF4789408958FEFDF
:1002100008951F920F920FB60F921124CF92DF9282
:10022000EF92FF920F931F932F933F934F935F9300
:100230006F937F938F939F93AF93BF93CF93DF93EE
:10024000EF93FF93D6B1D7700E94010C6B017C0134
:10025000C0E066C00C2F10E08D2F90E00C2E02C085
:10026000959587950A94E2F79C012170332780FFCA
:100270003CC080914F0190E00C2E02C0959587956F
:100280000A94E2F780FD31C080914A018430FCF489
:10029000F801EE0FFF1FEE0FFF1FE25CFE4F8081A3
:1002A0009181A281B3814E96A11DB11DC816D906B8
:1002B000EA06FB0660F0E0914A0181E08E0F809330
:1002C0004A010E2E000CFF0BE55BFE4FC0830E941F
:1002D000010C000F111F000F111FF801E25CFE4F0F
:1002E00060837183828393831AC0232BC1F480912E
:1002F0004F0190E0002E02C0959587950A94E2F791
:1003000080FF0DC00E94010C000F111F000F111F74
:10031000F801E25CFE4F6083718382839383CF5F39
:10032000C33008F497CFD0934F01FF91EF91DF9145
:10033000CF91BF91AF919F918F917F916F915F917D
:100340004F913F912F911F910F91FF90EF90DF9070
:10035000CF900F900FBE0F901F9018951F93CF93C3
:10036000DF930E94D70B81E20E94CA0B10E025C0E8
:10037000C12FD0E0BE01660F771F6B5F7F4F8DE20C
:1003800090E00E94A70B87EA90E09F938F930E94D2
:10039000600DBE016D5F7F4F660F771F8DE290E0AD
:1003A0000E94A70B8DE890E09F938F930E94600DB1
:1003B0001F5F0F900F900F900F901830C8F265E1FB
:1003C00070E08DE290E00E94A70B83E790E09F939E
:1003D0008F930E94600D0E94B80B0F900F90DF91D9
:1003E000CF911F91089565E070E08DE290E00E944A
:1003F000A70B80E20E94CA0B8BE690E09F938F933D
:100400000E94600D0F900F900895CF93DF93C82F37
:10041000D62F413041F0423041F0433041F044307A
:1004200041F48CE207C089E205C08AE203C08BE296
:1004300001C088E20E94CA0B6AE070E06D1B71097E
:100440008C2F90E09C01220F331F820F931F660FA9
:10045000771F8E960E94A70B88E690E09F938F935C
:100460000E94600D0E94B80B0F900F90DF91CF910A
:100470000895CF930E94AE0190E013C0E92FF0E001
:10048000EE0FFF1FEE0FFF1FEE0FFF1FE65AFE4F8E
:10049000E80FF11D10828F5F01C080E0883070F39B
:1004A0009F5F9830D0F3C0E01AC0EC2FF0E0EE0F61
:1004B000FF1FE45EFE4F80816181E82FF0E0EE0FC8
:1004C000FF1FEE0FFF1FEE0FFF1FE65AFE4FE60F56
:1004D000F11D91E0908341E00E940502CF5FC230A0
:1004E00020F3C0E01AC0EC2FF0E0EE0FFF1FE85E33
:1004F000FE4F80816181E82FF0E0EE0FFF1FEE0FCD
:10050000FF1FEE0FFF1FE65AFE4FE60FF11D92E0B0
:10051000908342E00E940502CF5FC23020F381E069
:1005200080939A0185E080939C0383E08093590136
:1005300010929B0184B1836084B985B1816085B9D3
:1005400085B18D7F85B9CF910895883080F468306A
:1005500080F4E82FF0E0EE0FFF1FEE0FFF1FEE0F0D
:10056000FF1FE65AFE4FE60FF11D8081089580E0DF
:10057000089580E0089590E0FC01E41BF109CF01AB
:1005800022F4882799278E1B9F0B70E0621B71094C
:100590009B0122F422273327261B370B811101C030
:1005A000822F0895BF92CF92DF92EF92FF920F9326
:1005B0001F93CF93DF93082FF62EE0909A0181E0EE
:1005C000E81202C0C2E001C0C1E011E01F0DD12F4E
:1005D00001C0DF5FD83030F46D2F802F0E94A5025C
:1005E000C817B9F3D83070F52D2F402F6F2D802FFD
:1005F0000E94BB02823040F1802F90E0FC01EE0FA0
:10060000FF1FEE0FFF1FEE0FFF1FE65AFE4FED0F0D
:10061000F11D2081E2121AC0FC01EE0FFF1FEE0F48
:10062000FF1FEE0FFF1FEF0DF11DEE0FFF1FEE0F6F
:10063000FF1FEE0FFF1FE456FE4F81E08083DD2495
:10064000D39405C0D12C03C0D12C01C0D12CD1E052
:10065000D00FB12ECD2E02C0C394B39487E08C1579
:1006600040F08B1530F06B2D8C2D0E94A502C81721
:1006700099F387E08C1578F18B1568F12B2D4C2DB3
:100680006F2D802F0E94BB02823028F1EC2DF0E00C
:10069000EE0FFF1FEE0FFF1FEE0FFF1FE65AFE4F7C
:1006A000EB0DF11D8081E81216C0E02FF0E0EE0F97
:1006B000FF1FEE0FFF1FEE0FFF1FEF0DF11DEE0FDF
:1006C000FF1FEE0FFF1FEE0FFF1FE456FE4F81E0EE
:1006D0008183DD24D394CD2E01C0C39487E08C1593
:1006E00030F06F2D8C2D0E94A502C817B1F387E062
:1006F0008C1578F12F2D4C2D6F2D802F0E94BB0271
:10070000823038F18F2D90E0EC2DF0E0EE0FFF1FDE
:10071000EE0FFF1FEE0FFF1FE65AFE4FE80FF91F07
:100720002081E21216C0E02FF0E0EE0FFF1FEE0F67
:10073000FF1FEE0FFF1FE80FF91FEE0FFF1FEE0F59
:10074000FF1FEE0FFF1FE456FE4F81E08283DD2482
:10075000D394BB24BA94BF0CCB2C02C0DF5FCA94E5
:10076000D83030F46C2D8D2F0E94A502C817B1F33C
:10077000D83068F52C2D4D2F6F2D802F0E94BB0295
:10078000823028F1ED2FF0E0EE0FFF1FEE0FFF1F7C
:10079000EE0FFF1FE65AFE4FEC0DF11D8081E812AF
:1007A00016C0E02FF0E0EE0FFF1FEE0FFF1FEE0F61
:1007B000FF1FEF0DF11DEE0FFF1FEE0FFF1FEE0FDE
:1007C000FF1FE456FE4F81E08383DD24D394DB2DAD
:1007D00001C0D1506D2F802F0E94A502C817C9F308
:1007E0002D2F402F6F2D802F0E94BB02823028F1C9
:1007F000802F90E0FC01EE0FFF1FEE0FFF1FEE0FAA
:10080000FF1FE65AFE4FED0FF11D2081E21215C0C9
:10081000FC01EE0FFF1FEE0FFF1FEE0FFF1FEF0D8E
:10082000F11DEE0FFF1FEE0FFF1FEE0FFF1FE4562F
:10083000FE4F81E08483DD24D394CC24CA94C00E7F
:10084000DC2D02C0D150BA946B2D8D2F0E94A502D1
:10085000C817C1F32B2D4D2F6F2D802F0E94BB0287
:10086000823028F1ED2FF0E0EE0FFF1FEE0FFF1F9B
:10087000EE0FFF1FE65AFE4FEB0DF11D8081E812CF
:1008800016C0E02FF0E0EE0FFF1FEE0FFF1FEE0F80
:10089000FF1FEF0DF11DEE0FFF1FEE0FFF1FEE0FFD
:1008A000FF1FE456FE4F81E08583DD24D394DC2DC9
:1008B00001C0D1506F2D8D2F0E94A502C817C9F31A
:1008C0002F2D4D2F6F2D802F0E94BB02823050F1B3
:1008D0008F2D90E0ED2FF0E0EE0FFF1FEE0FFF1FCA
:1008E000EE0FFF1FE65AFE4FE80FF91F2081E212BC
:1008F00019C0E02FF0E0EE0FFF1FEE0FFF1FEE0F0D
:10090000FF1FE80FF91FEE0FFF1FEE0FFF1FEE0F87
:10091000FF1FE456FE4F81E08683DD24D39402C09E
:10092000CA941F5F183030F4612F8C2D0E94A502ED
:10093000C817B1F3183068F5212F4C2D6F2D802F7B
:100940000E94BB02823028F1EC2DF0E0EE0FFF1F79
:10095000EE0FFF1FEE0FFF1FE65AFE4FE10FF11DD6
:100960008081E81216C0E02FF0E0EE0FFF1FEE0FBF
:10097000FF1FEE0FFF1FEF0DF11DEE0FFF1FEE0F1C
:10098000FF1FEE0FFF1FE456FE4F81E08783DD243B
:10099000D3948D2DDF91CF911F910F91FF90EF9008
:1009A000DF90CF90BF900895CF93DF9380919B010C
:1009B000882371F0D0915901C0919C036D2F8C2F29
:1009C0000E94A502482F6D2F8C2F0E94050217C090
:1009D0006091590180919C030E94D202882341F0CA
:1009E00043E06091590180919C030E94050207C079
:1009F00044E06091590180919C030E94050290910E
:100A00009B0181E0891B80939B01DF91CF91089529
:100A1000CF93DF93D82FC62F81E080939B010E9454
:100A2000D40480919C038D0F877080939C03609108
:100A300059016C0F67706093590110929B010E94DD
:100A4000D404DF91CF910895AF92BF92CF92DF92FD
:100A5000EF92FF920F931F93CF93DF93D82EE62E42
:100A600080919A01813021F46894FF24F1F802C04A
:100A7000FF24F3940D2D10E0CE2DD0E0F801EE0F01
:100A8000FF1FEE0FFF1FEE0FFF1FEC0FFD1FEE0FFE
:100A9000FF1FEE0FFF1FEE0FFF1FE456FE4F80817A
:100AA000882381F1CC24C394CE0C1CC040919A01C0
:100AB0009801220F331F220F331F220F331FB9015A
:100AC000665A7E4F5B01FB01E80FF91F40836C2DD6
:100AD0008D2D0E940502F501EC0FFD1F80810E9403
:100AE000370AC3948C2D90E0F801EE0FFF1FEE0F34
:100AF000FF1FEE0FFF1FE65AFE4FE80FF91F208180
:100B0000F216A1F2F801EE0FFF1FEE0FFF1FEE0F1E
:100B1000FF1FEC0FFD1FEE0FFF1FEE0FFF1FEE0F6D
:100B2000FF1FE456FE4F81818823D9F1BB24B39483
:100B3000BD0CCC24C394CE0C22C040919A01FC0180
:100B4000EE0FFF1FEE0FFF1FEE0FFF1FE65AFE4FC7
:100B5000E20FF31F40836C2D8B2D0E940502F801DC
:100B6000EE0FFF1FEE0FFF1FEE0FFF1FE65AFE4FA7
:100B7000EC0FFD1F80810E94370AB394C3948B2D24
:100B800090E02C2D30E0FC01EE0FFF1FEE0FFF1F59
:100B9000EE0FFF1FE65AFE4FE20FF31F4081F416DF
:100BA00061F2F801EE0FFF1FEE0FFF1FEE0FFF1FA8
:100BB000EC0FFD1FEE0FFF1FEE0FFF1FEE0FFF1FCD
:100BC000E456FE4F82818823A9F1CC24C394CD0C36
:100BD00021C040919A01FC01EE0FFF1FEE0FFF1F95
:100BE000EE0FFF1FE65AFE4FEC0FFD1F40836E2DE8
:100BF0008C2D0E940502F801EE0FFF1FEE0FFF1F64
:100C0000EE0FFF1FE65AFE4FEC0FFD1F80810E9482
:100C1000370AC3948C2D90E0FC01EE0FFF1FEE0FFE
:100C2000FF1FEE0FFF1FE65AFE4FEC0FFD1F208146
:100C3000F21679F2F801EE0FFF1FEE0FFF1FEE0F15
:100C4000FF1FEC0FFD1FEE0FFF1FEE0FFF1FEE0F3C
:100C5000FF1FE456FE4F83818823D9F1BB24B39450
:100C6000BD0CCC24CA94CE0C22C040919A01FC0148
:100C7000EE0FFF1FEE0FFF1FEE0FFF1FE65AFE4F96
:100C8000E20FF31F40836C2D8B2D0E940502F801AB
:100C9000EE0FFF1FEE0FFF1FEE0FFF1FE65AFE4F76
:100CA000EC0FFD1F80810E94370AB394CA948B2DEC
:100CB00090E02C2D30E0FC01EE0FFF1FEE0FFF1F28
:100CC000EE0FFF1FE65AFE4FE20FF31F4081F416AE
:100CD00061F2F801EE0FFF1FEE0FFF1FEE0FFF1F77
:100CE000EC0FFD1FEE0FFF1FEE0FFF1FEE0FFF1F9C
:100CF000E456FE4F8481882381F1CC24CA94CE0C23
:100D00001CC040919A019801220F331F220F331FFC
:100D1000220F331FB901665A7E4F5B01FB01E80FBA
:100D2000F91F40836C2D8D2D0E940502F501EC0FFB
:100D3000FD1F80810E94370ACA948C2D90E0F80133
:100D4000EE0FFF1FEE0FFF1FEE0FFF1FE65AFE4FC5
:100D5000E80FF91F2081F216A1F2F801EE0FFF1F34
:100D6000EE0FFF1FEE0FFF1FEC0FFD1FEE0FFF1F1B
:100D7000EE0FFF1FEE0FFF1FE456FE4F8581882305
:100D8000D9F1BB24BA94BD0CCC24CA94CE0C22C099
:100D900040919A01F901EE0FFF1FEE0FFF1FEE0FBA
:100DA000FF1FE65AFE4FE80FF91F40836C2D8B2D75
:100DB0000E940502F801EE0FFF1FEE0FFF1FEE0F5E
:100DC000FF1FE65AFE4FEC0FFD1F80810E94370A7D
:100DD000BA94CA942B2D30E08C2D90E0F901EE0FDF
:100DE000FF1FEE0FFF1FEE0FFF1FE65AFE4FE80F2B
:100DF000F91F4081F41661F2F801EE0FFF1FEE0FAC
:100E0000FF1FEE0FFF1FEC0FFD1FEE0FFF1FEE0F7A
:100E1000FF1FEE0FFF1FE456FE4F86818823A9F1C6
:100E2000CC24CA94CD0C21C040919A01F901EE0F57
:100E3000FF1FEE0FFF1FEE0FFF1FE65AFE4FEC0FD6
:100E4000FD1F40836E2D8C2D0E940502F801EE0FD0
:100E5000FF1FEE0FFF1FEE0FFF1FE65AFE4FEC0FB6
:100E6000FD1F80810E94370ACA942C2D30E0F901C1
:100E7000EE0FFF1FEE0FFF1FEE0FFF1FE65AFE4F94
:100E8000EC0FFD1F8081F81679F2F801EE0FFF1FBD
:100E9000EE0FFF1FEE0FFF1FEC0FFD1FEE0FFF1FEA
:100EA000EE0FFF1FEE0FFF1FE456FE4F87818823D2
:100EB000B1F1DA94E39421C040919A01220F331FDB
:100EC000220F331F220F331F265A3E4FE20FF31F0C
:100ED00040836E2D8D2D0E940502F801EE0FFF1F3D
:100EE000EE0FFF1FEE0FFF1FE65AFE4FEC0FFD1F28
:100EF00080810E94370ADA94E3942D2D30E0EE2DA4
:100F0000F0E0D901AA0FBB1FAA0FBB1FAA0FBB1F7E
:100F1000A65ABE4FAE0FBF1F8C91F81669F2DF9133
:100F2000CF911F910F91FF90EF90DF90CF90BF90E6
:100F3000AF9008950F931F93CF93DF9300E010E0DD
:100F400015C06C2F802F0E94A502811106C06C2F46
:100F5000802F0E94D20281110EC0219602C0C0E0F3
:100F6000D0E0C830D1056CF30F5F1F4F083011057A
:100F7000B4F380E001C081E0DF91CF911F910F9128
:100F80000895CF93DF93D0915901C0919C036D2FA9
:100F90008C2F0E94A50281118EC06D2F8C2F0E9474
:100FA000D202882309F487C080919C03E82FF0E0E7
:100FB00060915901EE0FFF1FEE0FFF1FEE0FFF1F95
:100FC000E65AFE4FE60FF11D90919A0190830E9420
:100FD0002405E0919C03F0E080915901EE0FFF1F82
:100FE000EE0FFF1FEE0FFF1FE65AFE4FE80FF11D39
:100FF00080810E94D70980919C0360915901E82F5C
:10100000F0E0EE0FFF1FEE0FFF1FEE0FFF1FE65A7F
:10101000FE4FE60FF11D40810E94050280919A016A
:10102000813039F485B1826085B985B18E7F85B90B
:1010300008C0823031F485B1816085B985B18D7F7A
:1010400085B980919A01813021F482E080939A01E0
:1010500003C081E080939A0180919A010E949A07CF
:10106000811129C080919A01813099F482E08093A6
:101070009A0185B1826085B985B18E7F85B98091ED
:101080009A010E949A07811116C081E08093500155
:1010900012C081E080939A0185B1816085B985B1E4
:1010A0008D7F85B980919A010E949A07811103C0B2
:1010B00081E080935001DF91CF910895809150019C
:1010C000089520E015C0E22FF0E0EE0FFF1FEE0FB5
:1010D000FF1FEE0FFF1FE65AFE4FE90FF11D808143
:1010E000882359F09F5F01C090E0983060F32F5F34
:1010F0002830D0F31092500181E0089580919A0138
:10110000813009F082E008950E94C00040E060E074
:101110007BE480E090E00E94BF0A0E94E00B78949C
:1011200008950E94C10B6AE070E08AE090E00E949E
:10113000A70B8AE191E09F938F930E94600D6CE072
:1011400070E08AE090E00E94A70B89EE90E09F9308
:101150008F930E94600D0E94F3010F900F900F90EB
:101160000F900E94060B882339F08091B304909170
:10117000B4040E940C0D01C08FEF833731F083352A
:1011800021F00E94E1008F3F61F308950E94C10B9E
:101190000E9439020E94E1000E940D0B0E94A909E1
:1011A00008958F929F92AF92BF92CF92DF92EF926B
:1011B000FF92CF93DF930E94010C4B015C0189C029
:1011C0000E94E100D82F823049F4809151018111B1
:1011D00005C060E08FEF0E94080509C0D13039F4E6
:1011E00080915101811103C061E00E9408050E94B5
:1011F000060B882341F08091B3049091B4040E94BF
:101200000C0DC82F01C0CFEFC33711F0C33541F427
:101210008091510181113AC06FEF0E94080536C0DC
:10122000C73711F0C73541F48091510181112EC0AB
:1012300061E00E9408052AC0C13611F0C13449F4AA
:1012400080915101811122C060E08FEF0E9408055A
:101250001DC0C43611F0C43449F48091510181118C
:1012600015C060E081E00E94080510C0C03711F091
:10127000C03561F40E943E0C80915101811104C07F
:1012800081E08093510102C010925101D11106C03A
:1012900080915101811102C00E94C107C03231F416
:1012A00080915101811102C00E94C1070E94010C6E
:1012B0006B017C01D501C4018C509E4FAF4FBF4FD5
:1012C000C816D906EA06FB0620F00E94D40446019F
:1012D00057010E946108811105C00E945E088823A1
:1012E00009F46ECFDF91CF91FF90EF90DF90CF9018
:1012F000BF90AF909F908F9008956EE070E08AE06D
:1013000090E00E94A70B8FED90E09F938F930E9437
:10131000600D6FE070E08AE090E00E94A70B81EC26
:1013200090E09F938F930E94600D0F900F900F900D
:101330000F900E94E1008F3FE1F308950E9484081E
:101340000E9491080E94C6080E94D1080E947D094F
:10135000F9CF82E080939D0380939E0362E070E06A
:1013600082E090E00E94A70B80919D031F928F93D3
:1013700080E291E09F938F930E944A0D63E070E0BA
:1013800082E090E00E94A70B80919E031F928F93B2
:101390008EE291E09F938F930E944A0D8DB79EB786
:1013A00008960FB6F8949EBF0FBE8DBF089581308A
:1013B00071F580919D038F5F80939D0362E070E0E3
:1013C00082E090E00E94A70B80919D031F928F9373
:1013D00080E291E09F938F930E944A0D63E070E05A
:1013E00082E090E00E94A70B80919E031F928F9352
:1013F0008EE291E09F938F930E944A0D8DB79EB726
:1014000008960FB6F8949EBF0FBE8DBF0895823028
:1014100069F580919E038F5F80939E0362E070E088
:1014200082E090E00E94A70B80919D031F928F9312
:1014300080E291E09F938F930E944A0D63E070E0F9
:1014400082E090E00E94A70B80919E031F928F93F1
:101450008EE291E09F938F930E944A0D8DB79EB7C5
:1014600008960FB6F8949EBF0FBE8DBF08958130C9
:1014700059F480919D038F5F80939D0380919E031B
:10148000815080939E03089580919D0381508093A5
:101490009D0380919E038F5F80939E0308950E9419
:1014A0007E08813019F480919D03089580919E03F8
:1014B0000895CF93C82F8A3019F48DE00E94590AFD
:1014C0009FB7907802C0992329F18091A0038F3FA4
:1014D000D1F3F894E0919F0381E08E0F80939F03F6
:1014E000F0E0EF55FC4FC0838091A0038F5F8093A5
:1014F000A00380919F038F3F11F410929F03E1ECB2
:10150000F0E0808180628083992339F0789480E0D4
:1015100090E005C081E090E002C080E090E0CF91D3
:1015200008958091B2048823E1F32FB72078F894CE
:101530008091A0043091B20490E0831B91095AF489
:10154000E091A0048091B204F0E0E81BF109EF54AF
:10155000FB4F80810AC0E091A0048091B204F0E0CA
:10156000E81BF109EF55FB4F80819091B204915037
:101570009093B204222309F0789490E00895109299
:101580009F031092A0031092A0041092B204109234
:10159000B10440935201DC01CB01880F991FAA1FAF
:1015A000BB1F880F991FAA1FBB1F9C01AD01220FF3
:1015B000331F441F551F60E074E284EF90E00E94E7
:1015C000CB0CBA01A9014F5F5F4F6F4F7F4FDB011B
:1015D000CA011AF40196A11DB11DB595A79597955D
:1015E000879501979093C5008093C400E1ECF0E0EB
:1015F00088E18083808180688083E3EBF4E080E091
:1016000091E0938382839183808308959091B204C3
:1016100081E0911101C080E008951092A004109221
:10162000B20408951F920F920FB60F9211242F93B8
:101630008F939F93EF93FF938091A003882329F1C9
:1016400080919F032091A00390E0821B91095AF49E
:10165000E0919F038091A003F0E0E81BF109E056C0
:10166000FB4F90810AC0E0919F038091A003F0E0BE
:10167000E81BF109EF55FC4F90818091A003815048
:101680008093A0039093C60005C0E1ECF0E0808158
:101690008F7D8083FF91EF919F918F912F910F907C
:1016A0000FBE0F901F9018951F920F920FB60F92BA
:1016B00011242F933F934F935F936F937F938F9357
:1016C0009F93AF93BF93CF93EF93FF93C091C600C7
:1016D00080915201882349F08091A0038F3F29F027
:1016E00060E070E08C2F0E94590A8091B204803132
:1016F00020F081E08093B10418C0CD3009F4CAE035
:10170000E091A00481E08E0F8093A004F0E0EF55FB
:10171000FB4FC0838091B2048F5F8093B2048091AD
:10172000A004803111F41092A004FF91EF91CF91A9
:10173000BF91AF919F918F917F916F915F914F91E9
:101740003F912F910F900FBE0F901F9018959F9370
:101750008F937F936F9389E391E09F938F930E9480
:10176000600D0F900F900F900F900F900F900895B5
:1017700084E391E09F938F930E94600D0F900F90F0
:1017800008958FE291E09F938F930E94600D0F90D8
:101790000F9008951F928F9389E291E09F938F930A
:1017A0000E94600D0F900F900F900F90089582E2AD
:1017B00091E09F938F930E94600D0F900F9008957A
:1017C0001092550110925601109257011092580133
:1017D00084B1886384B987B1886087B98AB18C6F16
:1017E0008AB916BC89EF87BD82E084BD83E085BDE0
:1017F000EEE6F0E080818260808385B3827085BBF5
:1018000008958FB7282F2078F89460915501709132
:1018100056018091570190915801222309F0789444
:10182000089595B1611102C028E001C020E0922B1B
:1018300095B998B170E0660F771F660F771F660F36
:10184000771F692B68B945B1E82FF0E0E25FFE4FE2
:101850009081929596959695937080E1989F9001CE
:101860001124242B25B92BB19081892F90E0880F6A
:10187000991F880F991F822B8BB90895809154016D
:10188000811104C081E080935401089510925401A5
:1018900008951F920F920FB60F9211242F933F932A
:1018A0004F935F936F937F938F939F93AF93BF9368
:1018B000EF93FF9380915401811114C080915501E1
:1018C00090915601A0915701B09158010196A11D28
:1018D000B11D8093550190935601A0935701B09389
:1018E000580110C08091550190915601A091570167
:1018F000B09158018093550190935601A0935701E0
:10190000B093580180915301811114C00E944F0A75
:10191000382F9DEC899F912D1124892F86958695CE
:101920008695982F990F292F220F220F920F832F20
:10193000891B16C00E944F0A9DEC899F212D1124FE
:10194000269526952695299F812D11248695869585
:101950008695880F982F990F990F890F281B822F32
:10196000609153010E94110C9091530181E0891BF9
:1019700080935301FF91EF91BF91AF919F918F9110
:101980007F916F915F914F913F912F910F900FBE7B
:101990000F901F901895052E97FB1EF400940E943F
:1019A000E20C57FD07D00E94EA0C07FC03D04EF46E
:1019B0000C94E20C50954095309521953F4F4F4F38
:1019C0005F4F089590958095709561957F4F8F4FEB
:1019D0009F4F0895A1E21A2EAA1BBB1BFD010DC04B
:1019E000AA1FBB1FEE1FFF1FA217B307E407F507CF
:1019F00020F0A21BB30BE40BF50B661F771F881FAB
:101A0000991F1A9469F760957095809590959B0140
:101A1000AC01BD01CF010895CF93DF93EC012B8181
:101A200020FF33C026FF0AC02F7B2B838E819F812E
:101A300001969F838E838A8190E029C022FF0FC088
:101A4000E881F9818081082E000C990B009719F428
:101A500020622B831AC03196F983E8830EC0EA8591
:101A6000FB85099597FF09C02B81019611F080E253
:101A700001C080E1822B8B8308C02E813F812F5FC4
:101A80003F4F3F832E83992702C08FEF9FEFDF9157
:101A9000CF910895A0E0B0E0E0E5FDE00C942710C0
:101AA000AE014B5F5F4FFA0161917191AF0180917F
:101AB000B5049091B6040E94860DE2E00C944310A8
:101AC000A0E0B0E0E6E6FDE00C942510AE01495F31
:101AD0005F4FDA016D917D91AD0103EB14E0F801E8
:101AE00082819381DC0113962C91139728601396C1
:101AF0002C930E94860DD8011296ED91FC911397BC
:101B00002381277F2383E4E00C944110ABE0B0E015
:101B1000ECE8FDE00C9417106C017B018A01FC01DC
:101B200017821682838181FFCCC1CE0101963C01D0
:101B3000F6019381F70193FD859193FF81917F01D8
:101B4000882309F4BAC1853239F493FD859193FF56
:101B500081917F01853229F4B60190E00E947D0FCA
:101B6000E7CF912C212C312CFFE1F315D8F08B32EB
:101B700079F038F4803279F08332A1F4232D20619A
:101B80001DC08D3261F0803369F4232D216016C0B1
:101B9000832D8260382EE32DE4603E2E2AC0F32D83
:101BA000F8601DC037FC2DC020ED280F2A3040F012
:101BB0008E32B9F436FC81C1232D2064322E19C037
:101BC00036FE06C08AE0989E200D1124922E11C088
:101BD000EAE02E9E200D1124222EF32DF0623F2EDE
:101BE00008C08C3621F4832D8068382E02C08836D8
:101BF00041F4F70193FD859193FF81917F0181115C
:101C0000B3CF982F9F7D9554933028F40C5F1F4FCE
:101C10009FE399830DC0833631F0833771F08335AC
:101C200009F059C021C0F801808189830E5F1F4FE0
:101C300088248394912C530113C02801F2E04F0EA5
:101C4000511CF801A080B18036FE03C0692D70E000
:101C500002C06FEF7FEFC5010E94720F4C0182013D
:101C6000F32DFF773F2E16C0280122E0420E511CB3
:101C7000F801A080B18036FE03C0692D70E002C07B
:101C80006FEF7FEFC5010E94670F4C01F32DF068E5
:101C90003F2E820133FC1BC0822D90E088169906EE
:101CA000B0F4B60180E290E00E947D0F2A94F4CF58
:101CB000F50137FC859137FE81915F01B60190E017
:101CC0000E947D0F21102A9421E0821A910881142C
:101CD000910471F7E8C0843611F0893641F5F801B6
:101CE00037FE07C060817181828193810C5F1F4F35
:101CF00008C060817181072E000C880B990B0E5F64
:101D00001F4FF32DFF763F2E97FF09C090958095CA
:101D1000709561957F4F8F4F9F4FF0683F2E2AE05F
:101D200030E0A3010E94B90F882E861845C0853780
:101D300031F4232D2F7EB22E2AE030E025C0932DE2
:101D4000997FB92E8F36C1F018F4883579F0B5C077
:101D5000803719F0883721F0B0C0E92FE061BE2E3E
:101D6000B4FE0DC0FB2DF460BF2E09C034FE0AC0C6
:101D7000292F2660B22E06C028E030E005C020E101
:101D800030E002C020E132E0F801B7FE07C0608118
:101D90007181828193810C5F1F4F06C060817181C8
:101DA00080E090E00E5F1F4FA3010E94B90F882EC4
:101DB0008618FB2DFF773F2E36FE0DC0232D2E7F7C
:101DC000A22E891458F434FE0BC032FC09C0832DB6
:101DD0008E7EA82E05C0B82CA32C03C0B82C01C041
:101DE000B92CA4FE0FC0FE01E80DF11D80818033E7
:101DF00021F49A2D997EA92E09C0A2FE06C0B394A3
:101E0000B39404C08A2D867809F0B394A3FC11C062
:101E1000A0FE06C0B21488F4280C922C9B180EC0A9
:101E2000B21460F4B60180E290E00E947D0FB3949A
:101E3000F7CFB21418F42B1802C0982C212CA4FE52
:101E400010C0B60180E390E00E947D0FA2FE17C093
:101E5000A1FC03C088E790E002C088E590E0B601ED
:101E60000CC08A2D867859F0A1FE02C08BE201C019
:101E700080E2A7FC8DE2B60190E00E947D0F8914FC
:101E800038F4B60180E390E00E947D0F9A94F7CF7A
:101E90008A94F301E80DF11D8081B60190E00E9463
:101EA0007D0F8110F5CF222009F442CEB60180E2E9
:101EB00090E00E947D0F2A94F6CFF60186819781EB
:101EC00002C08FEF9FEF2B96E2E10C943310FC01E0
:101ED0000590615070400110D8F7809590958E0F55
:101EE0009F1F0895FC016150704001900110D8F7C8
:101EF000809590958E0F9F1F08950F931F93CF93FA
:101F0000DF93FB01238121FD03C08FEF9FEF2CC0E6
:101F100022FF16C04681578124813581421753071D
:101F200044F4A081B1819D012F5F3F4F3183208315
:101F30008C93268137812F5F3F4F3783268314C0D0
:101F40008B01EC01FB010084F185E02D0995892BC3
:101F5000E1F6D80116968D919C91179701961796E8
:101F60009C938E931697CE01DF91CF911F910F9185
:101F70000895FA01AA27283051F1203181F1E8941F
:101F80006F936E7F6E5F7F4F8F4F9F4FAF4FB1E06C
:101F90003ED0B4E03CD0670F781F891F9A1FA11D67
:101FA000680F791F8A1F911DA11D6A0F711D811D68
:101FB000911DA11D20D009F468943F912AE0269F2D
:101FC00011243019305D3193DEF6CF010895462F8C
:101FD0004770405D4193B3E00FD0C9F7F6CF462F6D
:101FE0004F70405D4A3318F0495D31FD40524193D6
:101FF00002D0A9F7EACFB4E0A69597958795779593
:102000006795BA95C9F700976105710508959B0119
:10201000AC010A2E06945795479537952795BA95A2
:10202000C9F7620F731F841F951FA01D08952F927B
:102030003F924F925F926F927F928F929F92AF9258
:10204000BF92CF92DF92EF92FF920F931F93CF93A5
:10205000DF93CDB7DEB7CA1BDB0B0FB6F894DEBF3C
:102060000FBECDBF09942A88398848885F846E8462
:102070007D848C849B84AA84B984C884DF80EE80AC
:10208000FD800C811B81AA81B981CE0FD11D0FB6B5
:10209000F894DEBF0FBECDBFED010895F894FFCFD9
:1020A0000000000300000000590A910A00003F06EA
:1020B0005B4F666D7D077F6F030404030303040415
:1020C0005265642053636F72653A25366400477227
:0E20D00065656E2073636F72653A2534640097
:00000001FF
